:100000000C942A000C94B30A0C9447000C944700FB
:100010000C9447000C9447000C946E0A0C94470013
:100020000C9447000C9447000C94EB090C94C20903
:100030000C9447000C9447000C9447000C94470024
:100040000C9447000C9447000C9447000C94470014
:100050000C94470011241FBECFE5D8E0DEBFCDBF12
:1000600012E0A0E6B0E0EEE4FCE202C005900D92E2
:10007000A231B107D9F712E0A2E1B2E001C01D92AE
:10008000A332B107E1F70E9467150C9425160C9472
:100090000000EF92FF920F931F937B018C0120E0F1
:1000A00030E040E05FE40E94F50388238CF0C80153
:1000B000B70120E030E040E05FE40E94C1010E940F
:1000C000B3049B01AC01205030404040504806C072
:1000D000C801B7010E94B3049B01AC01B901CA0178
:1000E0001F910F91FF90EF900895A0E0B0E0EBE733
:1000F000F0E00C94EE15DC012B01FA019C9192309A
:1001000008F439C1EB018881823008F433C194309E
:1001100069F4843009F02FC111969C91119789815F
:10012000981709F428C1AAEFB0E025C1843009F47A
:1001300021C18230A9F4923009F01DC19A01AD01AC
:1001400088E0EA010990AE01E90109929E0181501F
:10015000C1F7E201898111969C918923818308C1AD
:10016000923009F407C112962D903C901397EB0141
:100170008A819B811496AD90BD90CD90DC901797AD
:10018000EC80FD800E811F819101281B390BB90184
:1001900037FF04C066277727621B730B6032710537
:1001A0000CF061C0121613066CF537014801062EDB
:1001B00004C096948794779467940A94D2F721E0C8
:1001C00030E040E050E004C0220F331F441F551FB1
:1001D0006A95D2F721503040404050402E213F21B7
:1001E00040235123211531054105510521F021E01E
:1001F00030E040E050E079018A01E628F72808293C
:1002000019293CC0232BD1F1260E371E350146019A
:10021000062E04C096948794779467940A94D2F734
:1002200021E030E040E050E004C0220F331F441FC3
:10023000551F6A95D2F721503040404050402A2146
:100240003B214C215D21211531054105510521F04E
:1002500021E030E040E050E059016A01A628B728CB
:10026000C828D9280BC0821593052CF01C01AA249C
:10027000BB24650103C0EE24FF24870111969C91E5
:10028000D20111968C91981709F445C0992339F041
:10029000A80197012A193B094C095D0906C0A6016E
:1002A00095012E193F09400B510B57FD08C01182D3
:1002B0003382228224833583468357831DC081E0A5
:1002C00081833382228288279927DC01821B930B4A
:1002D000A40BB50B84839583A683B7830DC0220F2F
:1002E000331F441F551F24833583468357838281E0
:1002F000938101979383828324813581468157813D
:10030000DA01C9010197A109B1098F5F9F4FAF4F72
:10031000BF4328F30BC0918333822282EA0CFB1C7B
:100320000C1D1D1DE482F5820683178383E0808304
:10033000248135814681578157FF1AC0C901AA27F8
:1003400097FDA095BA2F81709070A070B0705695EF
:10035000479537952795822B932BA42BB52B848318
:100360009583A683B7838281938101969383828349
:10037000DF0101C0D201CD01CDB7DEB7E2E10C94BF
:100380000A16A0E2B0E0E7ECF1E00C94FA156983FC
:100390007A838B839C832D833E834F835887E9E048
:1003A000EE2EF12CEC0EFD1ECE010196B7010E943F
:1003B000A4068E010F5E1F4FCE010596B8010E9464
:1003C000A4068A8991E089278A8BC701B801AE010A
:1003D000475E5F4F0E9475000E94CF05A096E6E041
:1003E0000C941616A0E2B0E0E8EFF1E00C94FA15D8
:1003F00069837A838B839C832D833E834F835887C5
:10040000F9E0EF2EF12CEC0EFD1ECE010196B701A6
:100410000E94A4068E010F5E1F4FCE010596B80103
:100420000E94A406C701B801AE01475E5F4F0E945B
:1004300075000E94CF05A096E6E00C941616A0E287
:10044000B0E0E5E2F2E00C94EE1569837A838B83E9
:100450009C832D833E834F835887CE010196BE0136
:10046000675F7F4F0E94A406CE010596BE016F5EB6
:100470007F4F0E94A4069985923088F08989823046
:10048000C8F0943019F4823051F404C0843029F457
:10049000923081F48AEF90E0C6C0923049F420E0B7
:1004A0009A858A89981321E02A87CE010996BBC0D4
:1004B000823049F420E09A858A89981321E02A8BBA
:1004C000CE014196B0C02D843E844F8458886D88FB
:1004D0007E888F88988CEE24FF248701AA24BB2471
:1004E000650140E050E060E070E0E0E0F0E0C10174
:1004F00081709070892BE9F0E60CF71C081D191D1E
:100500009A01AB012A0D3B1D4C1D5D1D80E090E062
:10051000A0E0B0E0E614F7040805190520F481E036
:1005200090E0A0E0B0E0BA01A901480F591F6A1F8E
:100530007B1FAA0CBB1CCC1CDD1C97FE08C081E0F5
:1005400090E0A0E0B0E0A82AB92ACA2ADB2A3196B6
:10055000E032F10549F0660C771C881C991C569412
:10056000479437942794C3CFFA85EA892B893C892D
:100570008B859C85280F391F2E5F3F4F17C0CA01FE
:1005800081709070892B61F016950795F794E79428
:1005900080E090E0A0E0B0E8E82AF92A0A2B1B2BC3
:1005A00076956795579547952F5F3F4F77FDE7CF36
:1005B0000CC0440F551F661F771F17FD4160EE0CDE
:1005C000FF1C001F111F21503040403090E05907A0
:1005D00090E0690790E4790760F32B8F3C8FDB0193
:1005E000CA018F779070A070B07080349105A1051A
:1005F000B10561F447FD0AC0E114F10401051105DC
:1006000029F0405C5F4F6F4F7F4F40781A8EFE1786
:1006100011F081E08A8F4D8F5E8F6F8F78A383E01A
:10062000898FCE0149960E94CF05A096E2E10C94F5
:100630000A16A8E1B0E0EFE1F3E00C94F615698347
:100640007A838B839C832D833E834F835887B9E0C5
:10065000EB2EF12CEC0EFD1ECE010196B7010E948F
:10066000A4068E010F5E1F4FCE010596B8010E94B1
:10067000A4062985223008F47EC03989323010F46E
:10068000B8017CC08A859A8989278A87243011F02D
:10069000223031F4231709F06EC06AEF70E06EC0AB
:1006A000343039F41D861E861F86188A1C861B86E8
:1006B00004C0323021F484E08987B7015FC02B8504
:1006C0003C858B899C89281B390B3C872B87ED84C3
:1006D000FE840F851889AD88BE88CF88D88CEA142F
:1006E000FB040C051D0540F4EE0CFF1C001F111F40
:1006F000215030403C872B8720E030E040E050E044
:1007000080E090E0A0E0B0E460E070E0EA14FB0478
:100710000C051D0540F0282B392B4A2B5B2BEA18C2
:10072000FB080C091D09B695A79597958795EE0CC2
:10073000FF1C001F111F6F5F7F4F6F31710531F775
:10074000DA01C9018F779070A070B0708034910584
:10075000A105B10561F427FD0AC0E114F10401050A
:10076000110529F0205C3F4F4F4F5F4F20782D87B8
:100770003E874F87588BBE01675F7F4FCB010E943A
:10078000CF056896EAE00C941216A8E1B0E0EBEC15
:10079000F3E00C94FA1569837A838B839C832D8311
:1007A0003E834F83588789E0E82EF12CEC0EFD1E26
:1007B000CE010196B7010E94A4068E010F5E1F4F65
:1007C000CE010596B8010E94A4068985823040F0CA
:1007D0008989823028F0C701B8010E941C0701C036
:1007E00081E06896E6E00C941616A8E1B0E0EBEF25
:1007F000F3E00C94FA1569837A838B839C832D83B1
:100800003E834F83588789E0E82EF12CEC0EFD1EC5
:10081000CE010196B7010E94A4068E010F5E1F4F04
:10082000CE010596B8010E94A4068985823040F069
:100830008989823028F0C701B8010E941C0701C0D5
:100840008FEF6896E6E00C941616A8E1B0E0EBE2B4
:10085000F4E00C94FA1569837A838B839C832D834F
:100860003E834F83588789E0E82EF12CEC0EFD1E65
:10087000CE010196B7010E94A4068E010F5E1F4FA4
:10088000CE010596B8010E94A4068985823040F009
:100890008989823028F0C701B8010E941C0701C075
:1008A00081E06896E6E00C941616A8E0B0E0EBE56F
:1008B000F4E00C94F7159B01AC0183E08983DA0125
:1008C000C9018827B7FD83959927AA27BB27B82E8A
:1008D000211531054105510519F482E089833AC09B
:1008E0008823A9F0203080E0380780E0480780E8BE
:1008F000580729F460E070E080E09FEC30C0EE24FF
:10090000FF248701E21AF30A040B150B02C07901D8
:100910008A018EE1C82ED12CDC82CB82ED82FE8250
:100920000F831887C801B7010E9480050197181628
:10093000190684F4082E04C0EE0CFF1C001F111FC2
:100940000A94D2F7ED82FE820F831887C81AD90A5B
:10095000DC82CB82BA82CE0101960E94CF05289616
:10096000E9E00C941316ACE0B0E0E9EBF4E00C9491
:10097000FE1569837A838B839C83CE010196BE0129
:100980006B5F7F4F0E94A4068D81823061F18230BF
:1009900050F1843021F48E81882351F12EC02F81B3
:1009A000388537FD20C06E812F3131051CF066235C
:1009B000F9F023C08EE190E0821B930B29853A85E4
:1009C0004B855C8504C056954795379527958A9544
:1009D000D2F76623B1F050954095309521953F4F61
:1009E0004F4F5F4F0EC020E030E040E050E009C0C4
:1009F0002FEF3FEF4FEF5FE704C020E030E040E033
:100A000050E8B901CA012C96E2E00C941A16A8E04D
:100A1000B0E0EDE0F5E00C94F6157B018C0161157A
:100A200071058105910519F482E0898360C083E036
:100A300089838EE1C82ED12CDC82CB82ED82FE82AE
:100A40000F831887C801B7010E948005FC01319708
:100A5000F7FF3BC0222733272E1B3F0B57016801AE
:100A6000022E04C0D694C794B794A7940A94D2F7E0
:100A700040E050E060E070E081E090E0A0E0B0E0B5
:100A800004C0880F991FAA1FBB1F2A95D2F7019790
:100A9000A109B1098E219F21A023B1230097A105AF
:100AA000B10521F041E050E060E070E04A295B29A7
:100AB0006C297D294D835E836F8378878EE190E07A
:100AC0008E1B9F0B9C838B8312C0309781F00E2E60
:100AD00004C0EE0CFF1C001F111F0A94D2F7ED8218
:100AE000FE820F831887CE1ADF0ADC82CB821A823D
:100AF000CE0101960E94CF052896EAE00C941216CA
:100B0000EF92FF920F931F937B018C0180E0E81618
:100B100080E0F80681E0080780E0180788F48FEF8E
:100B2000E816F1040105110531F028F088E090E0A5
:100B3000A0E0B0E017C080E090E0A0E0B0E012C01C
:100B400080E0E81680E0F80680E0080781E01807FA
:100B500028F088E190E0A0E0B0E004C080E190E0FF
:100B6000A0E0B0E020E230E040E050E0281B390B8C
:100B70004A0B5B0B04C016950795F794E7948A958A
:100B8000D2F7F701EE5FFE4F8081281B3109410942
:100B90005109C9011F910F91FF90EF900895DF92C5
:100BA000EF92FF920F931F93FC01E480F580068182
:100BB0001781D1808081823048F480E090E0A0E10C
:100BC000B0E0E82AF92A0A2B1B2BA5C0843009F4CF
:100BD0009FC0823021F4EE24FF24870105C0E11478
:100BE000F1040105110519F4E0E0F0E096C062811E
:100BF00073819FEF623879070CF05BC022E83FEF0A
:100C0000261B370B2A3131052CF020E030E040E084
:100C100050E02AC0B801A701022E04C0769567955E
:100C2000579547950A94D2F781E090E0A0E0B0E0B4
:100C300004C0880F991FAA1FBB1F2A95D2F70197DE
:100C4000A109B1098E219F21A023B1230097A105FD
:100C5000B10521F081E090E0A0E0B0E09A01AB01A5
:100C6000282B392B4A2B5B2BDA01C9018F77907027
:100C7000A070B07080349105A105B10539F427FF4B
:100C800009C0205C3F4F4F4F5F4F04C0215C3F4F76
:100C90004F4F5F4FE0E0F0E02030A0E03A07A0E0E7
:100CA0004A07A0E45A0710F0E1E0F0E079018A0178
:100CB00027C06038710564F5FB01E158FF4FD8018A
:100CC000C7018F779070A070B07080349105A10536
:100CD000B10539F4E7FE0DC080E490E0A0E0B0E09B
:100CE00004C08FE390E0A0E0B0E0E80EF91E0A1F18
:100CF0001B1F17FF05C016950795F794E7943196CB
:100D000087E016950795F794E7948A95D1F705C083
:100D1000EE24FF248701EFEFF0E06E2F6795662742
:100D20006795902F9F77D794DD24D7948E2F869543
:100D3000492F462B582F5D29B701CA011F910F91EA
:100D4000FF90EF90DF900895FC01DB01408151811D
:100D50002281622F6F7770E0221F2227221F93814A
:100D6000892F880F822B282F30E0991F9927991FF0
:100D700011969C93119721153105A9F5411551053F
:100D80006105710511F482E037C082E89FEF139688
:100D90009C938E9312979A01AB0167E0220F331F49
:100DA000441F551F6A95D1F783E08C930DC0220F25
:100DB000331F441F551F12968D919C9113970197D5
:100DC00013969C938E931297203080E0380780E032
:100DD000480780E4580758F314962D933D934D939C
:100DE0005C93179708952F3F310579F4411551050C
:100DF0006105710519F484E08C93089564FF03C0C4
:100E000081E08C9312C01C9210C02F573040139673
:100E10003C932E93129783E08C9387E0440F551FE9
:100E2000661F771F8A95D1F7706414964D935D9372
:100E30006D937C93179708951F93DC01FB019C91A0
:100E4000923008F447C08081823008F443C0943067
:100E500051F411961C91843099F58181682F70E0CE
:100E6000611B71093FC0843021F0923031F482302F
:100E7000B9F18181882389F12DC011961C911197B8
:100E80008230F1F081811817D9F412962D913C919E
:100E90001397828193818217930794F0281739075B
:100EA000BCF014968D919D910D90BC91A02D248144
:100EB000358146815781281739074A075B0718F49F
:100EC000112341F00AC082179307A407B50740F425
:100ED000112319F061E070E005C06FEF7FEF02C0F1
:100EE00060E070E0CB011F91089580911202909113
:100EF0001302A0911402B09115020196A11DB11D1B
:100F00008093120290931302A0931402B0931502DF
:100F1000805D9740A040B04001F50E941D140E94E2
:100F2000B10C90931702809316020E94841180E600
:100F300090E00E94CB13609116027091170280E03E
:100F400090E00E9407050E94EA111092120210928E
:100F50001302109214021092150220911602309181
:100F60001702283C310520F480E00E94140A0895FD
:100F7000C901885C9040C29720F489E10E94140A5C
:100F80000895C9018A5F90408550934018F480E528
:100F90000E94140A089581E00E94261183E00E94B5
:100FA000261182E00E9426110E941D14823341F115
:100FB000833309F447C0813309F065C081E00E94A2
:100FC000CC100E94841180E20E944C0C813039F4D4
:100FD00085E690E00E94CB1320E137E206C081E76E
:100FE00090E00E94CB1320E137E240E951E0CA01D2
:100FF0000197F1F721503040D1F70E9484110895F4
:1010000082E00E94CC100E9484118FE10E944C0C5F
:10101000813039F48EE790E00E94CB1320E137E273
:1010200006C089E890E00E94CB1320E137E240E956
:1010300051E0CA010197F1F721503040D1F70E94E9
:101040008411089583E00E94CC100E9484118EE1E7
:101050000E944C0C813039F485E990E00E94CB135A
:1010600020E137E206C080EA90E00E94CB1320E145
:1010700037E240E951E0CA010197F1F721503040D1
:10108000D1F70E94841108952F923F924F925F9260
:101090006F927F928F929F92AF92BF92CF92DF9288
:1010A000EF92FF920F931F93DF93CF9300D000D066
:1010B0000F92CDB7DEB70F2EF3E32F2EF02D19824E
:1010C0001A821B821C828CEA90E00E94CB13BB2404
:1010D00055240F2EF0E9CF2EF1E0DF2EF02D80E128
:1010E00097E28D83392E4E010894811C911CC40116
:1010F000782C692EA52C442443948981821509F00B
:1011000055C08A81833309F051C08B81873309F040
:101110004DC08C81873309F0CAC081E00E9426113E
:1011200082E00E94261183E00E9426110E94841111
:101130008BEB90E00E94CB1380E197E220E931E055
:10114000F9013197F1F70197D9F70E94841187ECE3
:1011500090E00E94CB1381E00E94F31082E00E9495
:10116000F31083E00E94F31080E197E220E931E080
:10117000F9013197F1F70197D9F70E9484118FECAB
:1011800090E00E94CB1381E00E94DE1082E00E947A
:10119000DE1083E00E94DE1080E197E220E931E07A
:1011A000F9013197F1F70197D9F786C084E0B816B5
:1011B00009F079C00E94841188ED90E00E94CB1361
:1011C00081E0652D0E948C1187EE90E00E94CB1388
:1011D00059825A825B825C8220E137E2C601019724
:1011E000F1F721503040D1F7809118028F5F809342
:1011F0001802833079F50E94841181EF90E00E94FB
:10120000CB1320E137E2C6010197F1F721503040BE
:10121000D1F700E010E00E948411B801882777FD23
:101220008095982F0E9455040E94EA118D81932D7C
:10123000F6013197F1F70197D9F70F5F1F4F0C3384
:10124000110549F7509218020E9484118CEA90E02F
:101250000E94CB130E9484118CEA90E00E94CB1371
:10126000B52C21C084010E0D1F1D0E941D14F80114
:1012700080838823D1F30E948411872D962D0E94AC
:10128000CB13B3948A2D882369F70894E11CF11CD1
:10129000F4E0EF16F10414F4842DF5CF85E0B816D0
:1012A00009F02BCF09C081E0EE24FF24ECCF8C8124
:1012B000873309F07BCFF7CF0F900F900F900F90EF
:1012C0000F90CF91DF911F910F91FF90EF90DF90E2
:1012D000CF90BF90AF909F908F907F906F905F90D6
:1012E0004F903F902F900895E3E5F0E08081806477
:1012F000808380818860808380818063808308957B
:10130000E3E5F0E08081887F826080830895E3E5F3
:10131000F0E08081887F80830895882319F08130F0
:1013200061F406C0E9E5F0E0808181608083089582
:10133000E9E5F0E08081826080830895882319F0D8
:10134000813061F406C0E9E5F0E080818E7F808322
:101350000895E9E5F0E080818D7F8083089582BF64
:1013600008958CBF0895662319F0613051F405C0CB
:1013700090931C0280931B02089590931E02809309
:101380001D0208951F920F920FB60F9211242F93F2
:101390003F934F935F936F937F938F939F93AF93FD
:1013A000BF93EF93FF93E0911B02F0911C023097E3
:1013B00009F00995FF91EF91BF91AF919F918F91A6
:1013C0007F916F915F914F913F912F910F900FBE41
:1013D0000F901F9018951F920F920FB60F92112425
:1013E0002F933F934F935F936F937F938F939F932D
:1013F000AF93BF93EF93FF93E0911D02F0911E0214
:10140000309709F00995FF91EF91BF91AF919F91AE
:101410008F917F916F915F914F913F912F910F909D
:101420000FBE0F901F901895982F853670F480E0AE
:1014300064E670E00E949E158FEF90E0861B970B8C
:101440001AF4909581959F4F8CBF08950895EFE40D
:10145000F0E080818E7F808380818D7F8083EEE4C9
:10146000F0E08081877F808380818F7E8083808190
:101470008E7F808380818260808380818B7F808368
:101480000895EEE4F0E080818064808308958823ED
:1014900019F0813061F406C0EEE4F0E080818064F0
:1014A00080830895EEE4F0E080818F7B808308954F
:1014B000E9E5F0E08081806280830895E9E5F0E06D
:1014C00080818F7D8083089590931A028093190202
:1014D000089526B537B5822F932F08951F920F9246
:1014E0000FB60F9211242F933F934F935F936F93F7
:1014F0007F938F939F93AF93BF93EF93FF93E0916D
:101500001902F0911A02309709F00995FF91EF91B5
:10151000BF91AF919F918F917F916F915F914F910B
:101520003F912F910F900FBE0F901F9018957894B8
:101530000895F8940895E5E5F0E080818E7F80833A
:10154000808182608083EBE5F0E08081806480832D
:10155000EFE5F0E080818068808308959093200219
:1015600080931F0208951F920F920FB60F921124BD
:101570002F933F934F935F936F937F938F939F939B
:10158000AF93BF93EF93FF93E0911F02F09120027E
:101590000995FF91EF91BF91AF919F918F917F91AD
:1015A0006F915F914F913F912F910F900FBE0F90D0
:1015B0001F901895282F362F6AE00E947E15492F1C
:1015C000822F0E947E15332321F0313009F086C02E
:1015D00046C08230D1F0833020F4813009F07EC0E3
:1015E00006C0833001F1843009F078C02AC0EAE3F4
:1015F000F0E0208181E090E002C0880F991F4A95B9
:10160000E2F78095822380830895E7E3F0E020816C
:1016100081E090E002C0880F991F4A95E2F780951B
:10162000822380830895E4E3F0E0208181E090E06C
:1016300002C0880F991F4A95E2F780958223808324
:101640000895E0E3F0E0208181E090E002C0880F9F
:10165000991F4A95E2F7809582238083089582300E
:10166000B9F0833018F48130C9F505C08330E9F052
:101670008430A1F527C0EAE3F0E0208181E090E02A
:1016800002C0880F991F4A95E2F7282B20830895FE
:10169000E7E3F0E0208181E090E002C0880F991F2D
:1016A0004A95E2F7282B20830895E4E3F0E02081B7
:1016B00081E090E002C0880F991F4A95E2F7282B3D
:1016C00020830895E0E3F0E0208181E090E002C013
:1016D000880F991F4A95E2F7282B20830895282F19
:1016E000362F6AE00E947E15492F822F0E947E15B8
:1016F000332321F0313009F086C046C08230D1F06A
:10170000833020F4813009F07EC006C0833001F1BF
:10171000843009F078C02AC0EBE3F0E0208181E05A
:1017200090E002C0880F991F4A95E2F780958223C6
:1017300080830895E8E3F0E0208181E090E002C03A
:10174000880F991F4A95E2F7809582238083089538
:10175000E5E3F0E0208181E090E002C0880F991F6E
:101760004A95E2F78095822380830895E1E3F0E0D3
:10177000208181E090E002C0880F991F4A95E2F72E
:1017800080958223808308958230B9F0833018F4E5
:101790008130C9F505C08330E9F08430A1F527C058
:1017A000EBE3F0E0208181E090E002C0880F991F18
:1017B0004A95E2F7282B20830895E8E3F0E02081A2
:1017C00081E090E002C0880F991F4A95E2F7282B2C
:1017D00020830895E5E3F0E0208181E090E002C0FD
:1017E000880F991F4A95E2F7282B20830895E1E39B
:1017F000F0E0208181E090E002C0880F991F4A95B7
:10180000E2F7282B20830895282F6AE00E947E1596
:10181000392F822F0E947E158230B9F0833018F460
:101820008130C9F505C08330E9F08430A1F527C0C7
:10183000EBE3F0E0208181E090E002C0880F991F87
:101840003A95E2F7282720830895E8E3F0E0208125
:1018500081E090E002C0880F991F3A95E2F72827AF
:1018600020830895E5E3F0E0208181E090E002C06C
:10187000880F991F3A95E2F7282720830895E1E31E
:10188000F0E0208181E090E002C0880F991F3A9536
:10189000E2F7282720830895282F6AE00E947E150A
:1018A000392F822F0E947E158230A1F0833018F4E8
:1018B000813029F406C08330B1F08430E9F080E053
:1018C000089589B390E002C0959587953A95E2F71F
:1018D0008170089586B390E002C0959587953A95FA
:1018E000E2F78170089583B390E002C095958795E3
:1018F0003A95E2F78170089580B390E002C0959523
:1019000087953A95E2F781700895E7E2F0E08081EB
:101910008064808380818F77808380818F7D8083C6
:1019200080818F7E80838081877F808380818B7F91
:10193000808380818D7F808380818E7F8083E6E2BB
:10194000F0E08081846080838081826080838081F8
:1019500081608083808180628083808180688083D1
:101960000895E6E2F0E0808180648083808184FFD6
:10197000FDCF24B135B1822F932F08950E94B10C71
:10198000A0E0B0E0BC01CD010E94070520E030E0FE
:101990004AEF53E40E941F0220E030EC4FE754E48A
:1019A0000E9419030E944900DC01CB0108950E94A6
:1019B000850C08951F93182F6AE00E947E159430BD
:1019C00009F494C0953058F49130C9F19130D0F0B9
:1019D000923009F451C0933009F035C16AC0973094
:1019E00009F4DBC0983038F4953009F49CC0963087
:1019F00009F029C1B5C0983009F4ECC0993009F05C
:101A000022C105C18BE061E00E946F0B8CE061E0B8
:101A10000E946F0B8DE061E00E946F0B8EE061E031
:101A20000E946F0B8FE061E00E946F0B80E161E02C
:101A30000E946F0B81E160E00E946F0B04C18BE09C
:101A400060E00E946F0B8CE061E00E946F0B8DE004
:101A500061E00E946F0B8EE060E00E946F0B80E1FE
:101A600060E00E946F0B8FE060E00E946F0B81E1ED
:101A700060E00E946F0BE7C08BE061E00E946F0B9B
:101A80008CE061E00E946F0B8DE060E00E946F0BC4
:101A90008EE061E00E946F0B8FE061E00E946F0BAF
:101AA00080E160E00E946F0B81E161E00E946F0BBA
:101AB000CAC08BE061E00E946F0B8CE061E00E9485
:101AC0006F0B8DE061E00E946F0B8EE061E00E9481
:101AD0006F0B8FE060E00E946F0B80E160E00E947E
:101AE0006F0B81E161E00E946F0BADC08BE060E0A5
:101AF0000E946F0B8CE061E00E946F0B8DE061E053
:101B00000E946F0B8EE060E00E946F0B8FE060E040
:101B10000E946F0B80E161E00E946F0B81E161E048
:101B20000E946F0B90C08BE061E00E946F0B8CE015
:101B300060E00E946F0B8DE061E00E946F0B8EE011
:101B400061E00E946F0B8FE060E00E946F0B80E10C
:101B500061E00E946F0B81E161E00E946F0B73C036
:101B60008BE061E00E946F0B8CE060E00E946F0BE5
:101B70008DE061E00E946F0B8EE061E00E946F0BD0
:101B80008FE061E00E946F0B80E161E00E946F0BCB
:101B900081E161E00E946F0B56C08BE061E00E9422
:101BA0006F0B8CE061E00E946F0B8DE061E00E94A2
:101BB0006F0B8EE060E00E946F0B8FE060E00E9490
:101BC0006F0B80E160E00E946F0B81E160E00E949A
:101BD0006F0B39C08BE061E00E946F0B8CE061E01D
:101BE0000E946F0B8DE061E00E946F0B8EE061E060
:101BF0000E946F0B8FE061E00E946F0B80E161E05B
:101C00000E946F0B81E161E00E946F0B1CC08BE0B2
:101C100061E00E946F0B8CE061E00E946F0B8DE031
:101C200061E00E946F0B8EE061E00E946F0B8FE01D
:101C300060E00E946F0B80E161E00E946F0B81E128
:101C400061E00E946F0B84E261E00E946F0B85E20D
:101C500060E00E946F0B80EA9FE00197F1F784E259
:101C600060E00E946F0B812F6AE00E947E15843035
:101C700009F494C0853058F48130C9F18130D0F036
:101C8000823009F451C0833009F035C16AC0873011
:101C900009F4DBC0883038F4853009F49CC0863004
:101CA00009F029C1B5C0883009F4ECC0893009F0C9
:101CB00022C105C18BE061E00E946F0B8CE061E006
:101CC0000E946F0B8DE061E00E946F0B8EE061E07F
:101CD0000E946F0B8FE061E00E946F0B80E161E07A
:101CE0000E946F0B81E160E00E946F0B04C18BE0EA
:101CF00060E00E946F0B8CE061E00E946F0B8DE052
:101D000061E00E946F0B8EE060E00E946F0B80E14B
:101D100060E00E946F0B8FE060E00E946F0B81E13A
:101D200060E00E946F0BE7C08BE061E00E946F0BE8
:101D30008CE061E00E946F0B8DE060E00E946F0B11
:101D40008EE061E00E946F0B8FE061E00E946F0BFC
:101D500080E160E00E946F0B81E161E00E946F0B07
:101D6000CAC08BE061E00E946F0B8CE061E00E94D2
:101D70006F0B8DE061E00E946F0B8EE061E00E94CE
:101D80006F0B8FE060E00E946F0B80E160E00E94CB
:101D90006F0B81E161E00E946F0BADC08BE060E0F2
:101DA0000E946F0B8CE061E00E946F0B8DE061E0A0
:101DB0000E946F0B8EE060E00E946F0B8FE060E08E
:101DC0000E946F0B80E161E00E946F0B81E161E096
:101DD0000E946F0B90C08BE061E00E946F0B8CE063
:101DE00060E00E946F0B8DE061E00E946F0B8EE05F
:101DF00061E00E946F0B8FE060E00E946F0B80E15A
:101E000061E00E946F0B81E161E00E946F0B73C083
:101E10008BE061E00E946F0B8CE060E00E946F0B32
:101E20008DE061E00E946F0B8EE061E00E946F0B1D
:101E30008FE061E00E946F0B80E161E00E946F0B18
:101E400081E161E00E946F0B56C08BE061E00E946F
:101E50006F0B8CE061E00E946F0B8DE061E00E94EF
:101E60006F0B8EE060E00E946F0B8FE060E00E94DD
:101E70006F0B80E160E00E946F0B81E160E00E94E7
:101E80006F0B39C08BE061E00E946F0B8CE061E06A
:101E90000E946F0B8DE061E00E946F0B8EE061E0AD
:101EA0000E946F0B8FE061E00E946F0B80E161E0A8
:101EB0000E946F0B81E161E00E946F0B1CC08BE000
:101EC00061E00E946F0B8CE061E00E946F0B8DE07F
:101ED00061E00E946F0B8EE061E00E946F0B8FE06B
:101EE00060E00E946F0B80E161E00E946F0B81E176
:101EF00061E00E946F0B84E260E00E946F0B85E25C
:101F000061E00E946F0B80EA9FE00197F1F785E2A4
:101F100060E00E946F0B1F910895EF92FF921F9354
:101F2000CF93DF93182FE82EFF24992787FD9095F4
:101F3000E816F90684F4C0E2DEE4812F0E94DA0C90
:101F4000CE010197F1F71150812F992787FD9095C8
:101F5000E816F90694F3DF91CF911F91FF90EF906F
:101F600008950F931F93CF93DF93082F10E0C0E2E3
:101F7000DEE4812F0E94DA0CCE010197F1F71F5F9A
:101F80000117B8F7DF91CF911F910F9108958BE062
:101F900061E00E94DA0A8CE061E00E94DA0A8DE0DA
:101FA00061E00E94DA0A8EE061E00E94DA0A8FE0C6
:101FB00061E00E94DA0A80E161E00E94DA0A81E1D0
:101FC00061E00E94DA0A84E161E00E94DA0A84E2B8
:101FD00061E00E94DA0A85E261E00E94DA0A08956F
:101FE000813019F0823041F404C082E20E94040C76
:101FF000089581E20E94040C0895813019F0823026
:1020000051F405C082E260E00E946F0B089581E206
:1020100060E00E946F0B0895813019F0823051F416
:1020200005C082E261E00E946F0B089581E261E0E9
:102030000E946F0B0895813019F0823051F405C071
:1020400082E261E00E94DA0A089581E261E00E9482
:10205000DA0A08951F93823051F1833018F48130E9
:1020600039F408C0833009F43FC0843009F457C004
:1020700011E06FC08AE20E944C0C182F882309F0EF
:1020800068C028EE33E040E951E0CA010197F1F75A
:1020900021503040D1F78AE20E944C0C882309F08D
:1020A00058C08AE20E944C0C8823D9F352C08BE2BC
:1020B0000E944C0C182F882309F04BC028EE33E007
:1020C00040E951E0CA010197F1F721503040D1F7C2
:1020D0008BE20E944C0C882309F03BC08BE20E94EB
:1020E0004C0C8823D9F335C08CE20E944C0C182F7D
:1020F000882379F528EE33E040E951E0CA010197E1
:10210000F1F721503040D1F78CE20E944C0C88232B
:1021100001F58CE20E944C0C8823D9F31AC08DE2A1
:102120000E944C0C182F8823A1F428EE33E040E9DC
:1021300051E0CA010197F1F721503040D1F78DE20B
:102140000E944C0C882329F48DE20E944C0C8823B9
:10215000D9F3812F1F910895823079F0833018F4DC
:102160008130C9F405C0833069F08430A1F40FC018
:102170008AE260E00E94DA0A08958BE260E00E9441
:10218000DA0A08958CE260E00E94DA0A08958DE28E
:1021900060E00E94DA0A0895823061F0833031F005
:1021A000813059F480E20E94040C08958EE10E946F
:1021B000040C08958FE10E94040C0895823049F0C8
:1021C000833061F0813071F480E260E00E946F0B37
:1021D00008958FE160E00E946F0B08958EE160E04A
:1021E0000E946F0B0895823049F0833061F0813096
:1021F00071F480E261E00E946F0B08958FE161E06D
:102200000E946F0B08958EE161E00E946F0B0895AC
:102210001F93182F28E833E140E951E0CA010197E4
:10222000F1F721503040D1F7812F0E94F31028E8B8
:1022300033E140E951E0CA010197F1F72150304004
:10224000D1F7812F0E94DE101F910895823049F04E
:10225000833061F0813071F480E261E00E94DA0A3B
:1022600008958FE161E00E94DA0A08958EE161E04D
:102270000E94DA0A0895CF92DF92EF92FF921F93A5
:10228000182F8BE060E00E946F0B0F2EFBE3CF2E28
:10229000DD24F02DF6019081812F8695887797783F
:1022A000892B80838CE061E00E946F0B0F2EF0EA97
:1022B000EF2EFFE0FF2EF02DC7010197F1F78CE024
:1022C00060E00E946F0BC7010197F1F7F601808172
:1022D000110F110F110F18778778182B10838CE0CE
:1022E00061E00E946F0BC7010197F1F78CE060E09D
:1022F0000E946F0B80E29EE40197F1F71F91FF901F
:10230000EF90DF90CF90089581E00E943B1180E232
:102310009EE40197F1F70895DF93CF9300D0CDB7F6
:10232000DEB790E8998390EC9A83FE01E80FF11DE7
:102330008181860F0E943B110F900F90CF91DF910A
:102340000895CF92DF92EF92FF921F93182F8BE0A8
:1023500061E00E946F0B0F2EFBE3CF2EDD24F02DEA
:10236000F6019081812F869588779778892B8083D5
:102370008CE061E00E946F0B0F2EF0EAEF2EFFE081
:10238000FF2EF02DC7010197F1F78CE060E00E946D
:102390006F0BC7010197F1F7F6018081110F110F43
:1023A000110F18778778182B10838CE061E00E945A
:1023B0006F0BC7010197F1F78CE060E00E946F0B93
:1023C00080E29EE40197F1F71F91FF90EF90DF907C
:1023D000CF900895AF92BF92CF92DF92EF92FF928B
:1023E0000F931F93DF93CF93CDB7DEB728970FB628
:1023F000F894DEBF0FBECDBF7B018C0119821A821B
:102400001B821C820E9449006B0180E090E00E94C8
:1024100007059B01AC01C801B7010E94C10120E082
:1024200030E44CE156E40E941F020E9449005B0127
:10243000C801B70120E030E040E050E00E942504F0
:1024400088231CF48DE20E94A111A114B10429F08B
:10245000C114D104C1F540E053C0C114D10411F43A
:1024600040E01DC040E08E010F5F1F4F842F992771
:1024700087FD9095F801E80FF91FC6016AE070E04A
:102480000E948A158083C6016AE070E00E948A1566
:10249000862F972F6C014F5FC114D10439F7E42EBA
:1024A000EA946E010894C11CD11C8E2D992787FDDA
:1024B0009095F601E80FF91F8081805D0E94A111BF
:1024C000EA949CF76AC040E08E010F5F1F4F842F93
:1024D000992787FD9095F801E80FF91FC6016AE07A
:1024E00070E00E948A158083C6016AE070E00E9455
:1024F0008A15862F972F6C014F5FC114D10439F7CD
:102500001D821E821F82188610E00F2EF5E0CF2E4E
:10251000DD24F02DCC0EDD1E812F992787FD9095AF
:10252000F601E80FF91FC5016AE070E00E948A1504
:102530008083C5016AE070E00E948A15862F972F7C
:102540005C011F5FA114B10439F7E42EEA946E0117
:102550000894C11CD11C8E2D992787FD9095F601FA
:10256000E80FF91F8081805D0E94A111EA949CF719
:102570008EE20E94A111E12EEA948E010B5F1F4FA3
:102580008E2D992787FD9095F801E80FF91F80811E
:10259000805D0E94A111EA949CF728960FB6F894EA
:1025A000DEBF0FBECDBFCF91DF911F910F91FF9086
:1025B000EF90DF90CF90BF90AF9008952F923F9211
:1025C0004F925F926F927F928F929F92BF92CF9223
:1025D000DF92EF92FF920F931F93DF93CF93CDB7CC
:1025E000DEB72F970FB6F894DEBF0FBECDBF1B012D
:1025F0002C01FE0131968AE0DF011D928A95E9F7F0
:10260000C201B10120E030E040E050E00E94C5038B
:10261000882319F480E30E94A111C201B10120E0D6
:1026200030E040E050E00E94250488233CF48DE235
:102630000E94A11157FA509457F85094C201B10169
:102640000E94B3043B014C016115710581059105A0
:1026500011F4BB242BC06B017C01BB248B2D99276B
:1026600087FD909501E010E00C0F1D1F080F191F4A
:10267000C701B6012AE030E040E050E00E94B11509
:10268000F8016083C701B6012AE030E040E050E085
:102690000E94B115822F932FA42FB52F6C017D01BD
:1026A000B394C114D104E104F104C1F68E01055FB5
:1026B0001F4F85E0D8011D928A95E9F7C401B30147
:1026C0000E9455049B01AC01C201B1010E94C101ED
:1026D000BA94680188249924689484F88C0E9D1E0D
:1026E00020E030E040E251E40E941F027B018C01B7
:1026F0000E944900F60161936F0170E0882777FD21
:102700008095982F0E9455049B01AC01C801B70128
:102710000E94C101C814D90419F7BB208CF07E01B6
:102720000894E11CF11C8B2D992787FD9095F701EA
:10273000E80FF91F8081805D0E94A111BA949CF777
:102740008EE20E94A1118B85805D0E94A1118C8573
:10275000805D0E94A1118D85805D0E94A1118E85F2
:10276000805D0E94A1112F960FB6F894DEBF0FBEB8
:10277000CDBFCF91DF911F910F91FF90EF90DF9030
:10278000CF90BF909F908F907F906F905F904F9071
:102790003F902F9008951F93CF93DF93EC01888192
:1027A000882351F010E00E94A1111F5FFE01E10F8C
:1027B000F11D80818823B9F780E29EE40197F1F74B
:1027C000DF91CF911F9108958DE061E00E94DA0AB8
:1027D0008EE061E00E94DA0A8FE061E00E94DA0A8E
:1027E00080E161E00E94DA0A8CE061E00E94DA0A8E
:1027F0008BE061E00E94DA0A20E137E240E951E033
:10280000CA010197F1F721503040D1F783E30E94CC
:102810003B1182E30E943B1188E20E943B118CE055
:102820000E943B1182E00E943B1181E00E943B111B
:1028300080E29EE40197F1F708954F925F926F92C4
:102840007F928F929F92AF92BF92CF92DF92EF9240
:10285000FF920F931F93DF93CF93CDB7DEB76097AF
:102860000FB6F894DEBF0FBECDBFDE011196E2E0D9
:10287000F2E080E101900D928150E1F77724AA24E3
:10288000BB242E010894411C511C0F2EFAE26F2E1E
:10289000F02D00E911E088EE93E0982E892E0F2E9E
:1028A000F8E1EF2EF02DEA0C8E2D60E00E946F0B08
:1028B000C501880F991F880F991F6201C80ED91E84
:1028C000F62C8F2D0E944C0C882399F4892D982D7D
:1028D000F8013197F1F70197D9F78F2D0E944C0C31
:1028E000882339F48F2D0E944C0C8823D9F3F601EC
:1028F0007080F3940894C11CD11CFEE2FF1609F706
:102900008E2D61E00E946F0B0894A11CB11C84E025
:10291000A816B10421F6872D60960FB6F894DEBF95
:102920000FBECDBFCF91DF911F910F91FF90EF9020
:10293000DF90CF90BF90AF909F908F907F906F90DF
:102940005F904F90089588E161E00E94DA0A89E182
:1029500061E00E94DA0A8AE161E00E94DA0A8BE112
:1029600061E00E94DA0A8AE260E00E94DA0A8BE201
:1029700060E00E94DA0A8CE260E00E94DA0A8DE2EE
:1029800060E00E94DA0A88E161E00E946F0B89E151
:1029900061E00E946F0B8AE161E00E946F0B8BE1A6
:1029A00061E00E946F0B089583E260E00E946F0B6C
:1029B000089583E261E00E946F0B08950E94D9148C
:1029C00020E533EC40E951E0CA010197F1F72150CD
:1029D0003040D1F70E94D41408950E94D91428E8F9
:1029E00033E140E951E0CA010197F1F7215030404D
:1029F000D1F70E94D41424EC39E040E951E0CA0137
:102A00000197F1F721503040D1F70E94D91428E8FE
:102A100033E140E951E0CA010197F1F7215030401C
:102A2000D1F70E94D41424EC39E040E951E0CA0106
:102A30000197F1F721503040D1F70E94D91428E8CE
:102A400033E140E951E0CA010197F1F721503040EC
:102A5000D1F70E94D41408950E94D91428E833E1D4
:102A600040E951E0CA010197F1F721503040D1F718
:102A70000E94D41424EC39E040E951E0CA010197E6
:102A8000F1F721503040D1F70E94D91428E833E102
:102A900040E951E0CA010197F1F721503040D1F7E8
:102AA0000E94D41408950E94D91428E833E140E923
:102AB00051E0CA010197F1F721503040D1F70E944F
:102AC000D414089583E261E00E94DA0A08950E9416
:102AD000E4130E94A3140E9444080E94740987E131
:102AE00061E00E94DA0A0E9480090E94C70F0E94DA
:102AF000850C0E94CB070E947507FBCF991B79E0DC
:102B000004C0991F961708F0961B881F7A95C9F77D
:102B100080950895AA1BBB1B51E107C0AA1FBB1FCC
:102B2000A617B70710F0A61BB70B881F991F5A9559
:102B3000A9F780959095BC01CD01089597FB092ECA
:102B400007260AD077FD04D0E5DF06D000201AF46E
:102B5000709561957F4F0895F6F7909581959F4FF9
:102B6000089597FB092E05260ED057FD04D014D0EA
:102B70000AD0001C38F450954095309521953F4F70
:102B80004F4F5F4F0895F6F790958095709561953A
:102B90007F4F8F4F9F4F0895A1E21A2EAA1BBB1B98
:102BA000FD010DC0AA1FBB1FEE1FFF1FA217B30719
:102BB000E407F50720F0A21BB30BE40BF50B661F2F
:102BC000771F881F991F1A9469F7609570958095F3
:102BD00090959B01AC01BD01CF0108952F923F92CA
:102BE0004F925F926F927F928F929F92AF92BF921D
:102BF000CF92DF92EF92FF920F931F93CF93DF93C9
:102C0000CDB7DEB7CA1BDB0B0FB6F894DEBF0FBE25
:102C1000CDBF09942A88398848885F846E847D8472
:102C20008C849B84AA84B984C884DF80EE80FD8074
:102C30000C811B81AA81B981CE0FD11D0FB6F894EA
:0E2C4000DEBF0FBECDBFED010895F894FFCFAB
:102C4E004144433D00426C7565204C4544204F4E37
:102C5E0000426C7565204C4544204F464600475255
:102C6E004E204C4544204F4E0047524E204C45447A
:102C7E00204F464600524544204C4544204F4E00BE
:102C8E00524544204C4544204F464600456E7465DF
:102C9E00722050617373776F72640057656C636F47
:102CAE006D6520536972004C454453204F4E004CC5
:102CBE00454453204F46460057726F6E6720506151
:102CCE007373776F72640054727920616761696EF5
:102CDE000077382031206D696E0000000000000082
:102CEE0000000001020203030303040404040404AD
:102CFE000404050505050505050505050505050578
:102D0E000505060606060606060606060606060657
:102D1E000606060606060606060606060606060645
:102D2E000606070707070707070707070707070727
:102D3E000707070707070707070707070707070715
:102D4E000707070707070707070707070707070705
:102D5E0007070707070707070707070707070707F5
:102D6E0007070808080808080808080808080808D7
:102D7E0008080808080808080808080808080808C5
:102D8E0008080808080808080808080808080808B5
:102D9E0008080808080808080808080808080808A5
:102DAE000808080808080808080808080808080895
:102DBE000808080808080808080808080808080885
:102DCE000808080808080808080808080808080875
:102DDE000808080808080808080808080808080865
:102DEE0008083132332B3435362D3738392A2E3008
:022DFE003D2F67
:00000001FF
